{
  "contractName": "MarketplaceSecurity",
  "abi": [
    {
      "constant": false,
      "inputs": [],
      "name": "disown",
      "outputs": [],
      "payable": false,
      "stateMutability": "nonpayable",
      "type": "function"
    },
    {
      "constant": false,
      "inputs": [
        {
          "name": "time",
          "type": "uint256"
        }
      ],
      "name": "suspendWithdrawals",
      "outputs": [],
      "payable": false,
      "stateMutability": "nonpayable",
      "type": "function"
    },
    {
      "constant": false,
      "inputs": [],
      "name": "kill",
      "outputs": [],
      "payable": false,
      "stateMutability": "nonpayable",
      "type": "function"
    },
    {
      "constant": false,
      "inputs": [],
      "name": "toggleContractActive",
      "outputs": [],
      "payable": false,
      "stateMutability": "nonpayable",
      "type": "function"
    }
  ],
  "bytecode": "0x60806040526000805460a060020a61ffff021916750100000000000000000000000000000000000000000017815560015534801561003c57600080fd5b506103178061004c6000396000f3fe6080604052600436106100615763ffffffff7c01000000000000000000000000000000000000000000000000000000006000350416631385d24c81146100665780631e9bf0da1461007d57806341c0e1b5146100925780634e5bd234146100a7575b600080fd5b34801561007257600080fd5b5061007b6100d1565b005b34801561008957600080fd5b5061007b610173565b34801561009e57600080fd5b5061007b6101ef565b3480156100b357600080fd5b5061007b600480360360208110156100ca57600080fd5b5035610267565b60005473ffffffffffffffffffffffffffffffffffffffff16331461012e576040805160e560020a62461bcd02815260206004820152601c60248201526000805160206102cc833981519152604482015290519081900360640190fd5b6000805475ff00000000000000000000000000000000000000000019811675010000000000000000000000000000000000000000009182900460ff1615909102179055565b60005473ffffffffffffffffffffffffffffffffffffffff1633146101d0576040805160e560020a62461bcd02815260206004820152601c60248201526000805160206102cc833981519152604482015290519081900360640190fd5b6000805473ffffffffffffffffffffffffffffffffffffffff19169055565b60005473ffffffffffffffffffffffffffffffffffffffff16331461024c576040805160e560020a62461bcd02815260206004820152601c60248201526000805160206102cc833981519152604482015290519081900360640190fd5b60005473ffffffffffffffffffffffffffffffffffffffff16ff5b60005473ffffffffffffffffffffffffffffffffffffffff1633146102c4576040805160e560020a62461bcd02815260206004820152601c60248201526000805160206102cc833981519152604482015290519081900360640190fd5b420160015556fe43616c6c6572206973206e6f7420636f6e7472616374206f776e657200000000a165627a7a72305820448d7ab620dd17c419e8094a8085529b7fddf783a9c124451e6868e52c1543b50029",
  "source": "pragma solidity 0.5.0;\n\nimport \"./StringUtil.sol\";\n\n\n/** @title Marketplace security. \n  * @author Juho Lehtonen\n*/\ncontract MarketplaceSecurity {\n\n    address internal owner;\n    bool internal reentryProtector = false;\n    bool internal isContractActive = true;\n    uint internal withdrawalSuspendedUntilTime = 0;\n    uint internal constant MAX_STRING_LENGTH = 25;\n    uint internal constant IPFS_HASH_STRING_LENGTH = 46;\n\n    modifier externalFunctionCallIsNotOngoing() {\n        require(!reentryProtector, \"External call is ongoing. Function call denied.\");\n        _;\n    }\n\n    modifier isOwner() {\n        require(msg.sender == owner, \"Caller is not contract owner\");\n        _;\n    }\n\n    modifier isContractActivated {\n        require(isContractActive, \"Contract is deactive. Function call denied.\");\n        _;\n    }\n\n    modifier isContractDeactivated {\n        require(!isContractActive, \"Contract is actived. Function call denied.\");\n        _;\n    }\n\n    modifier isWithdrawalAllowed() {\n        require(now >= withdrawalSuspendedUntilTime, \"Withdrawals are suspended temporarily\");\n        _;        \n    }\n\n    modifier isValidString(string memory str) {\n        require(stringValidation(str), \n            \"Invalid string. Valid charactes a-z, A-Z, 0-9, dot and space. Max length is 25\");\n        _;        \n    }\n\n    modifier isValidIpfsHashString(string memory str) {\n        require(ipfsHashValidation(str), \n            \"Invalid string. Valid charactes a-z, A-Z, 0-9, dot and space. Max length is 46. Starting with 'Qm'\");\n        _;        \n    }\n\n    /** @notice Erase ownership information.\n      * @dev Once ownership is erased, contract can't be destroyed nor\n      * deactivated by contract creator.\n      */\n    function disown()\n    public\n    isOwner()\n    {\n        delete owner;\n    }\n\n    /** @notice Destroy the contract and remove it from the blockchain. \n      * @dev Only contract owner can destroy contract. Contract owner will \n      * receive all of the funds that the contract currently holds.\n      */\n    function suspendWithdrawals(uint time)\n    public\n    isOwner()\n    {\n        withdrawalSuspendedUntilTime = now + time;\n    }\n\n    /** @notice Destroy the contract and remove it from the blockchain. \n      * @dev Only contract owner can destroy contract. Contract owner will \n      * receive all of the funds that the contract currently holds.\n      */\n    function kill()\n    public\n    isOwner()\n    {\n        selfdestruct(address(uint160(owner)));\n    }\n\n    /** @notice Toggle contract's activity state. \n      * @dev If contract is active when function is called, contract will be deactivated. If contract is deactivated \n      * when function is called, contract will be activated. A circuit breaker can be triggered manually by contract \n      * owner. Function is used when a bug is discovered.\n      */\n    function toggleContractActive() \n    public\n    isOwner()\n    {\n        isContractActive = !isContractActive;\n    }\n\n    /** @notice Mark contract as having entered an external function.\n      * @dev Throws an exception if called twice with no externalLeave().\n      * NOTE: \n      * - call externalEnter() at the start of each external function\n      * - call externalLeave() at the end of each external function\n      * - never use return statements in between enter and leave\n      * - never call an external function from another function\n      */\n    function externalEnter()\n    internal\n    externalFunctionCallIsNotOngoing()\n    {\n        reentryProtector = true;\n    }\n\n    /** @notice Mark contract as having left an external function.\n      * @dev Do this after each call to externalEnter().\n      */\n    function externalLeave() \n    internal \n    {\n        reentryProtector = false;\n    }\n\n    /** @notice Check validity of string.\n      * @dev Limiting the length of user-supplied string.\n      * @return isValid Result of validation.\n      */\n    function stringValidation(string memory str)\n    private\n    pure\n    returns (bool isValid)\n    {\n        bytes memory b = bytes(str);\n        if (b.length > MAX_STRING_LENGTH) {\n            return false;\n        }\n\n        for (uint i; i < b.length; i++) {\n            bytes1 char = b[i];\n            if (!(char >= 0x30 && char <= 0x39) && // 9-0\n                !(char >= 0x41 && char <= 0x5A) && // A-Z\n                !(char >= 0x61 && char <= 0x7A) && // a-z\n                !(char == 0x2E) && // .\n                !(char == 0x20) // space\n            ) {\n                return false;\n            }\n        }\n        return true;\n    }\n\n    /** @notice Check validity of IPFS hash.\n      * @dev Chech that IPFS hash begins with \"Qm\" and\n      * the length is 46.\n      * @return isValid Result of validation.\n      */\n    function ipfsHashValidation(string memory ipfsHash)\n    private\n    pure\n    returns (bool isValid)\n    {\n        bytes memory b = bytes(ipfsHash);\n        if (b.length != IPFS_HASH_STRING_LENGTH) {\n            return false;\n        }\n\n        // starting with \"Qm\"\n        if (b[0] != 0x51 || b[1] != 0x6D) {\n            return false;\n        }\n\n        for (uint i; i < b.length; i++) {\n            bytes1 char = b[i];\n            if (!(char >= 0x30 && char <= 0x39) && // 9-0\n                !(char >= 0x41 && char <= 0x5A) && // A-Z\n                !(char >= 0x61 && char <= 0x7A) // a-z\n            ) {\n                return false;\n            }\n        }\n        return true;\n    }\n}",
  "sourcePath": "/Users/lehtonen/Documents/solidity/marketplace/contracts/MarketplaceSecurity.sol",
  "compiler": {
    "name": "solc",
    "version": "0.5.0+commit.1d4f565a.Emscripten.clang"
  },
  "schemaVersion": "3.0.1",
  "updatedAt": "2019-01-23T19:37:44.772Z",
  "devdoc": {
    "author": "Juho Lehtonen",
    "methods": {
      "disown()": {
        "details": "Once ownership is erased, contract can't be destroyed nor deactivated by contract creator."
      },
      "kill()": {
        "details": "Only contract owner can destroy contract. Contract owner will  receive all of the funds that the contract currently holds."
      },
      "suspendWithdrawals(uint256)": {
        "details": "Only contract owner can destroy contract. Contract owner will  receive all of the funds that the contract currently holds."
      },
      "toggleContractActive()": {
        "details": "If contract is active when function is called, contract will be deactivated. If contract is deactivated  when function is called, contract will be activated. A circuit breaker can be triggered manually by contract  owner. Function is used when a bug is discovered."
      }
    },
    "title": "Marketplace security. "
  },
  "userdoc": {
    "methods": {
      "disown()": {
        "notice": "Erase ownership information."
      },
      "kill()": {
        "notice": "Destroy the contract and remove it from the blockchain. "
      },
      "suspendWithdrawals(uint256)": {
        "notice": "Destroy the contract and remove it from the blockchain. "
      },
      "toggleContractActive()": {
        "notice": "Toggle contract's activity state. "
      }
    }
  }
}