{
  "contractName": "Marketplace",
  "abi": [
    {
      "constant": false,
      "inputs": [],
      "name": "toggleContractActive",
      "outputs": [],
      "payable": false,
      "stateMutability": "nonpayable",
      "type": "function",
      "signature": "0x1385d24c"
    },
    {
      "constant": false,
      "inputs": [],
      "name": "disown",
      "outputs": [],
      "payable": false,
      "stateMutability": "nonpayable",
      "type": "function",
      "signature": "0x1e9bf0da"
    },
    {
      "constant": false,
      "inputs": [],
      "name": "kill",
      "outputs": [],
      "payable": false,
      "stateMutability": "nonpayable",
      "type": "function",
      "signature": "0x41c0e1b5"
    },
    {
      "constant": false,
      "inputs": [
        {
          "name": "time",
          "type": "uint256"
        }
      ],
      "name": "suspendWithdrawals",
      "outputs": [],
      "payable": false,
      "stateMutability": "nonpayable",
      "type": "function",
      "signature": "0x4e5bd234"
    },
    {
      "inputs": [],
      "payable": false,
      "stateMutability": "nonpayable",
      "type": "constructor",
      "signature": "constructor"
    },
    {
      "anonymous": false,
      "inputs": [
        {
          "indexed": false,
          "name": "addr",
          "type": "address"
        }
      ],
      "name": "LogAdminRightsGranted",
      "type": "event",
      "signature": "0xd3bb62db0283786f57799e3517002af0b64c61687ef480bac34d05c746ef6dce"
    },
    {
      "anonymous": false,
      "inputs": [
        {
          "indexed": false,
          "name": "addr",
          "type": "address"
        }
      ],
      "name": "LogStoreOwnerRightsGranted",
      "type": "event",
      "signature": "0x4aa15d7bfc6c8346c6246999e49742eb70ebdbab3d9e1909c0a96ef5e03ef640"
    },
    {
      "anonymous": false,
      "inputs": [
        {
          "indexed": false,
          "name": "addr",
          "type": "address"
        }
      ],
      "name": "LogStoreOwnerRightsRequested",
      "type": "event",
      "signature": "0xa85e843f21522c811b0b84257b449a1aaccdaa85f20fa02f799bf3f226811a26"
    },
    {
      "anonymous": false,
      "inputs": [
        {
          "indexed": true,
          "name": "addr",
          "type": "address"
        },
        {
          "indexed": false,
          "name": "index",
          "type": "uint256"
        }
      ],
      "name": "LogDeleteUser",
      "type": "event",
      "signature": "0x9a67af531bfbfd34f63109e83cfab08e30f92a1827d5c3f50e8fa815469ff9f2"
    },
    {
      "anonymous": false,
      "inputs": [
        {
          "indexed": false,
          "name": "owner",
          "type": "address"
        },
        {
          "indexed": false,
          "name": "name",
          "type": "string"
        },
        {
          "indexed": false,
          "name": "balance",
          "type": "uint256"
        },
        {
          "indexed": false,
          "name": "productCount",
          "type": "uint256"
        }
      ],
      "name": "LogNewStorefrontCreated",
      "type": "event",
      "signature": "0xeec6f2e508c00a9fe3904d869037ba18d024b6298685787e7669db2411a7fa3b"
    },
    {
      "anonymous": false,
      "inputs": [
        {
          "indexed": false,
          "name": "storeOwner",
          "type": "address"
        },
        {
          "indexed": false,
          "name": "storeIndex",
          "type": "uint256"
        }
      ],
      "name": "LogStorefrontRemoved",
      "type": "event",
      "signature": "0xd2c6da6bb71b22fd84a2f1cf24ee4f228222b97c9d91ebe409b863cf925384ac"
    },
    {
      "anonymous": false,
      "inputs": [
        {
          "indexed": false,
          "name": "name",
          "type": "string"
        },
        {
          "indexed": false,
          "name": "price",
          "type": "uint256"
        },
        {
          "indexed": false,
          "name": "quantity",
          "type": "uint256"
        }
      ],
      "name": "LogNewProductAdded",
      "type": "event",
      "signature": "0xfc54aa6b2c88fe3496d174877855cd39f03b3bb53b8c07b038f6df34c1929c39"
    },
    {
      "anonymous": false,
      "inputs": [
        {
          "indexed": false,
          "name": "storeOwner",
          "type": "address"
        },
        {
          "indexed": false,
          "name": "storeIndex",
          "type": "uint256"
        },
        {
          "indexed": false,
          "name": "index",
          "type": "uint256"
        }
      ],
      "name": "LogProductRemoved",
      "type": "event",
      "signature": "0xfeadd144a3b5a69775bcc9e1ae1b8fd25e93a4f475b5ced68888c8bd698cbe7c"
    },
    {
      "anonymous": false,
      "inputs": [
        {
          "indexed": false,
          "name": "storeOwner",
          "type": "address"
        },
        {
          "indexed": false,
          "name": "storeIndex",
          "type": "uint256"
        },
        {
          "indexed": false,
          "name": "productIndex",
          "type": "uint256"
        },
        {
          "indexed": false,
          "name": "quantity",
          "type": "uint256"
        }
      ],
      "name": "LogPurchaseProduct",
      "type": "event",
      "signature": "0x030281f3ca2147e2d4121d7a265f814b85166ca79a12d282460bf5f68848c0b0"
    },
    {
      "anonymous": false,
      "inputs": [
        {
          "indexed": false,
          "name": "addr",
          "type": "address"
        },
        {
          "indexed": false,
          "name": "storeIndex",
          "type": "uint256"
        },
        {
          "indexed": false,
          "name": "amount",
          "type": "uint256"
        }
      ],
      "name": "LogWithdraw",
      "type": "event",
      "signature": "0xda9a10d7b992511ddadbfc7ff712c1424ce2058bbcdac8c9876d6f8de590d43f"
    },
    {
      "anonymous": false,
      "inputs": [
        {
          "indexed": false,
          "name": "storeOwner",
          "type": "address"
        },
        {
          "indexed": false,
          "name": "storeIndex",
          "type": "uint256"
        },
        {
          "indexed": false,
          "name": "index",
          "type": "uint256"
        }
      ],
      "name": "LogProductPictureIpfsHashAdded",
      "type": "event",
      "signature": "0x58bf226982e859283cd16bc6018b65ccae0ebaf607a7d28e733f81976bd66ae4"
    },
    {
      "constant": false,
      "inputs": [
        {
          "name": "newStoreOwner",
          "type": "address"
        }
      ],
      "name": "addStoreOwner",
      "outputs": [],
      "payable": false,
      "stateMutability": "nonpayable",
      "type": "function",
      "signature": "0x9adeb5f1"
    },
    {
      "constant": false,
      "inputs": [
        {
          "name": "newAdmin",
          "type": "address"
        }
      ],
      "name": "addAdmin",
      "outputs": [],
      "payable": false,
      "stateMutability": "nonpayable",
      "type": "function",
      "signature": "0x70480275"
    },
    {
      "constant": false,
      "inputs": [],
      "name": "requestStoreOwnerStatus",
      "outputs": [],
      "payable": false,
      "stateMutability": "nonpayable",
      "type": "function",
      "signature": "0xb2791dbd"
    },
    {
      "constant": false,
      "inputs": [
        {
          "name": "userAddress",
          "type": "address"
        }
      ],
      "name": "deleteUser",
      "outputs": [],
      "payable": false,
      "stateMutability": "nonpayable",
      "type": "function",
      "signature": "0x5c60f226"
    },
    {
      "constant": true,
      "inputs": [
        {
          "name": "userAddress",
          "type": "address"
        }
      ],
      "name": "getUserStatus",
      "outputs": [
        {
          "name": "userStatus",
          "type": "uint8"
        }
      ],
      "payable": false,
      "stateMutability": "view",
      "type": "function",
      "signature": "0xea0d5dcd"
    },
    {
      "constant": true,
      "inputs": [],
      "name": "getUsers",
      "outputs": [
        {
          "name": "addrs",
          "type": "address[]"
        },
        {
          "name": "statuses",
          "type": "uint8[]"
        }
      ],
      "payable": false,
      "stateMutability": "view",
      "type": "function",
      "signature": "0x00ce8e3e"
    },
    {
      "constant": false,
      "inputs": [
        {
          "name": "name",
          "type": "string"
        }
      ],
      "name": "addStorefront",
      "outputs": [],
      "payable": false,
      "stateMutability": "nonpayable",
      "type": "function",
      "signature": "0xf054bff7"
    },
    {
      "constant": false,
      "inputs": [
        {
          "name": "storeOwner",
          "type": "address"
        },
        {
          "name": "storeIndex",
          "type": "uint256"
        }
      ],
      "name": "removeStorefront",
      "outputs": [],
      "payable": false,
      "stateMutability": "nonpayable",
      "type": "function",
      "signature": "0x824026cf"
    },
    {
      "constant": false,
      "inputs": [
        {
          "name": "storeIndex",
          "type": "uint256"
        },
        {
          "name": "name",
          "type": "string"
        },
        {
          "name": "price",
          "type": "uint256"
        },
        {
          "name": "quantity",
          "type": "uint256"
        }
      ],
      "name": "addProductToStoreFront",
      "outputs": [],
      "payable": false,
      "stateMutability": "nonpayable",
      "type": "function",
      "signature": "0x87a324ec"
    },
    {
      "constant": false,
      "inputs": [
        {
          "name": "storeOwner",
          "type": "address"
        },
        {
          "name": "storeIndex",
          "type": "uint256"
        },
        {
          "name": "productIndex",
          "type": "uint256"
        }
      ],
      "name": "removeProductFromStorefront",
      "outputs": [],
      "payable": false,
      "stateMutability": "nonpayable",
      "type": "function",
      "signature": "0xcf67d850"
    },
    {
      "constant": true,
      "inputs": [
        {
          "name": "storeOwner",
          "type": "address"
        },
        {
          "name": "storeIndex",
          "type": "uint256"
        }
      ],
      "name": "getAllProductsFromStorefront",
      "outputs": [
        {
          "name": "names",
          "type": "bytes"
        },
        {
          "name": "prices",
          "type": "uint256[]"
        },
        {
          "name": "quantities",
          "type": "uint256[]"
        },
        {
          "name": "ipfsHashes",
          "type": "bytes32[]"
        }
      ],
      "payable": false,
      "stateMutability": "view",
      "type": "function",
      "signature": "0x821a39fc"
    },
    {
      "constant": true,
      "inputs": [
        {
          "name": "storeOwner",
          "type": "address"
        }
      ],
      "name": "getStorefronts",
      "outputs": [
        {
          "name": "names",
          "type": "bytes"
        },
        {
          "name": "balances",
          "type": "uint256[]"
        },
        {
          "name": "productCount",
          "type": "uint256[]"
        }
      ],
      "payable": false,
      "stateMutability": "view",
      "type": "function",
      "signature": "0x11f46980"
    },
    {
      "constant": false,
      "inputs": [
        {
          "name": "storeOwner",
          "type": "address"
        },
        {
          "name": "storeIndex",
          "type": "uint256"
        },
        {
          "name": "productIndex",
          "type": "uint256"
        },
        {
          "name": "quantity",
          "type": "uint256"
        }
      ],
      "name": "purchaseProduct",
      "outputs": [],
      "payable": true,
      "stateMutability": "payable",
      "type": "function",
      "signature": "0x4d33b912"
    },
    {
      "constant": false,
      "inputs": [
        {
          "name": "storeIndex",
          "type": "uint256"
        },
        {
          "name": "amount",
          "type": "uint256"
        }
      ],
      "name": "withdrawFunds",
      "outputs": [],
      "payable": true,
      "stateMutability": "payable",
      "type": "function",
      "signature": "0xe5253105"
    },
    {
      "constant": false,
      "inputs": [],
      "name": "emergencyWithdraw",
      "outputs": [],
      "payable": true,
      "stateMutability": "payable",
      "type": "function",
      "signature": "0xdb2e21bc"
    },
    {
      "constant": true,
      "inputs": [
        {
          "name": "userAddress",
          "type": "address"
        }
      ],
      "name": "getUserBalance",
      "outputs": [
        {
          "name": "combinedBalance",
          "type": "uint256"
        }
      ],
      "payable": false,
      "stateMutability": "view",
      "type": "function",
      "signature": "0x47734892"
    },
    {
      "constant": false,
      "inputs": [
        {
          "name": "storeIndex",
          "type": "uint256"
        },
        {
          "name": "productIndex",
          "type": "uint256"
        },
        {
          "name": "newPrice",
          "type": "uint256"
        }
      ],
      "name": "updatePrice",
      "outputs": [],
      "payable": false,
      "stateMutability": "nonpayable",
      "type": "function",
      "signature": "0x0f436129"
    },
    {
      "constant": false,
      "inputs": [
        {
          "name": "storeIndex",
          "type": "uint256"
        },
        {
          "name": "productIndex",
          "type": "uint256"
        },
        {
          "name": "picIpfsHash",
          "type": "bytes32"
        }
      ],
      "name": "updateIpfsHashForProductPic",
      "outputs": [],
      "payable": false,
      "stateMutability": "nonpayable",
      "type": "function",
      "signature": "0xdd4c8f6c"
    }
  ],
  "bytecode": "0x60806040526000805460a060020a61ffff021916750100000000000000000000000000000000000000000017815560015534801561003c57600080fd5b5060008054600160a060020a031916339081178255604080516060810182526002808252602080830186905260038054848601529486525292208251815491929091839160ff1990911690600190849081111561009557fe5b02179055506020828101516001808401919091556040938401516002909301929092556003805492830181556000527fc2575a0e9e593c00f959f8c92f12db2869c3395a3b0502d05e2516446f71f85b9091018054600160a060020a03191633908117909155825190815291517fd3bb62db0283786f57799e3517002af0b64c61687ef480bac34d05c746ef6dce9281900390910190a16142ab806200013c6000396000f3fe6080604052600436106101265763ffffffff7c0100000000000000000000000000000000000000000000000000000000600035041662ce8e3e811461012b5780630f436129146101d957806311f46980146102115780631385d24c146103425780631e9bf0da1461035757806341c0e1b51461036c57806347734892146103815780634d33b912146103c65780634e5bd234146103fe5780635c60f22614610428578063704802751461045b578063821a39fc1461048e578063824026cf1461060a57806387a324ec146106435780639adeb5f114610702578063b2791dbd14610735578063cf67d8501461074a578063db2e21bc14610789578063dd4c8f6c14610791578063e5253105146107c7578063ea0d5dcd146107ea578063f054bff714610841575b600080fd5b34801561013757600080fd5b506101406108f4565b604051808060200180602001838103835285818151815260200191508051906020019060200280838360005b8381101561018457818101518382015260200161016c565b50505050905001838103825284818151815260200191508051906020019060200280838360005b838110156101c35781810151838201526020016101ab565b5050505090500194505050505060405180910390f35b3480156101e557600080fd5b5061020f600480360360608110156101fc57600080fd5b5080359060208101359060400135610a2b565b005b34801561021d57600080fd5b506102446004803603602081101561023457600080fd5b5035600160a060020a0316610c48565b60405180806020018060200180602001848103845287818151815260200191508051906020019080838360005b83811015610289578181015183820152602001610271565b50505050905090810190601f1680156102b65780820380516001836020036101000a031916815260200191505b508481038352865181528651602091820191808901910280838360005b838110156102eb5781810151838201526020016102d3565b50505050905001848103825285818151815260200191508051906020019060200280838360005b8381101561032a578181015183820152602001610312565b50505050905001965050505050505060405180910390f35b34801561034e57600080fd5b5061020f610dd0565b34801561036357600080fd5b5061020f610e53565b34801561037857600080fd5b5061020f610ec2565b34801561038d57600080fd5b506103b4600480360360208110156103a457600080fd5b5035600160a060020a0316610f20565b60408051918252519081900360200190f35b61020f600480360360808110156103dc57600080fd5b50600160a060020a03813516906020810135906040810135906060013561105c565b34801561040a57600080fd5b5061020f6004803603602081101561042157600080fd5b50356113e1565b34801561043457600080fd5b5061020f6004803603602081101561044b57600080fd5b5035600160a060020a0316611438565b34801561046757600080fd5b5061020f6004803603602081101561047e57600080fd5b5035600160a060020a03166116b4565b34801561049a57600080fd5b506104c7600480360360408110156104b157600080fd5b50600160a060020a03813516906020013561194a565b6040518080602001806020018060200180602001858103855289818151815260200191508051906020019080838360005b838110156105105781810151838201526020016104f8565b50505050905090810190601f16801561053d5780820380516001836020036101000a031916815260200191505b508581038452885181528851602091820191808b01910280838360005b8381101561057257818101518382015260200161055a565b50505050905001858103835287818151815260200191508051906020019060200280838360005b838110156105b1578181015183820152602001610599565b50505050905001858103825286818151815260200191508051906020019060200280838360005b838110156105f05781810151838201526020016105d8565b505050509050019850505050505050505060405180910390f35b34801561061657600080fd5b5061020f6004803603604081101561062d57600080fd5b50600160a060020a038135169060200135611be2565b34801561064f57600080fd5b5061020f6004803603608081101561066657600080fd5b8135919081019060408101602082013564010000000081111561068857600080fd5b82018360208201111561069a57600080fd5b803590602001918460018302840111640100000000831117156106bc57600080fd5b91908080601f0160208091040260200160405190810160405280939291908181526020018383808284376000920191909152509295505082359350505060200135611d85565b34801561070e57600080fd5b5061020f6004803603602081101561072557600080fd5b5035600160a060020a03166122d5565b34801561074157600080fd5b5061020f612565565b34801561075657600080fd5b5061020f6004803603606081101561076d57600080fd5b50600160a060020a038135169060208101359060400135612741565b61020f6128eb565b34801561079d57600080fd5b5061020f600480360360608110156107b457600080fd5b5080359060208101359060400135612aff565b61020f600480360360408110156107dd57600080fd5b5080359060200135612d00565b3480156107f657600080fd5b5061081d6004803603602081101561080d57600080fd5b5035600160a060020a0316613074565b6040518082600381111561082d57fe5b60ff16815260200191505060405180910390f35b34801561084d57600080fd5b5061020f6004803603602081101561086457600080fd5b81019060208101813564010000000081111561087f57600080fd5b82018360208201111561089157600080fd5b803590602001918460018302840111640100000000831117156108b357600080fd5b91908080601f016020809104026020016040519081016040528093929190818152602001838380828437600092019190915250929550613096945050505050565b6003546040805182815260208084028201019091526060918291818015610925578160200160208202803883390190505b50915080604051908082528060200260200182016040528015610952578160200160208202803883390190505b50925060005b81811015610a2557600380548290811061096e57fe5b6000918252602090912001548451600160a060020a039091169085908390811061099457fe5b600160a060020a0390921660209283029091019091015260038054600291600091849081106109bf57fe5b6000918252602080832090910154600160a060020a03168352820192909252604001902054835160ff909116908490839081106109f857fe5b906020019060200201906003811115610a0d57fe5b90816003811115610a1a57fe5b905250600101610958565b50509091565b60005460a860020a900460ff161515610a90576040805160e560020a62461bcd02815260206004820152602b60248201526000805160206141e08339815191526044820152600080516020614260833981519152606482015290519081900360840190fd5b3360008181526002602081905260409091205460ff166003811115610ab157fe5b1480610ae357506001600160a060020a03821660009081526002602052604090205460ff166003811115610ae157fe5b145b1515610b3b576040805160e560020a62461bcd02815260206004820152602860248201526000805160206142208339815191526044820152600080516020614200833981519152606482015290519081900360840190fd5b33600090815260026020526040812060010154908590821180610b6057508060018303105b1515610ba4576040805160e560020a62461bcd02815260206004820152601a6024820152600080516020614180833981519152604482015290519081900360640190fd5b8360008111610bfd576040805160e560020a62461bcd02815260206004820152600d60248201527f496e76616c696420707269636500000000000000000000000000000000000000604482015290519081900360640190fd5b610c05613422565b3360009081526005602090815260408083208a84529091529020859087600a8110610c2c57fe5b6004020160010181905550610c3f6134f2565b50505050505050565b60608080836000600160a060020a03821660009081526002602052604090205460ff166003811115610c7657fe5b1415610ccc576040805160e560020a62461bcd02815260206004820152601260248201527f416464726573732069732073686f707065720000000000000000000000000000604482015290519081900360640190fd5b600160a060020a0385166000908152600260209081526040918290206001015482518181528183028101909201909252818015610d13578160200160208202803883390190505b50935080604051908082528060200260200182016040528015610d40578160200160208202803883390190505b50925060005b81811015610dba57600160a060020a03871660009081526004602052604081208260058110610d7157fe5b60030201905080600101548683815181101515610d8a57fe5b6020908102909101015260028101548551869084908110610da757fe5b6020908102909101015250600101610d46565b50610dc58187613512565b945050509193909250565b600054600160a060020a03163314610e20576040805160e560020a62461bcd02815260206004820152601c6024820152600080516020614240833981519152604482015290519081900360640190fd5b6000805475ff00000000000000000000000000000000000000000019811660a860020a9182900460ff1615909102179055565b600054600160a060020a03163314610ea3576040805160e560020a62461bcd02815260206004820152601c6024820152600080516020614240833981519152604482015290519081900360640190fd5b6000805473ffffffffffffffffffffffffffffffffffffffff19169055565b600054600160a060020a03163314610f12576040805160e560020a62461bcd02815260206004820152601c6024820152600080516020614240833981519152604482015290519081900360640190fd5b600054600160a060020a0316ff5b60035460009082908210610f6c576040805160e560020a62461bcd02815260206004820152601160248201526000805160206141c0833981519152604482015290519081900360640190fd5b600160a060020a03811660008181526002602081905260409091200154600380549091908110610f9857fe5b600091825260209091200154600160a060020a031614610ff0576040805160e560020a62461bcd02815260206004820152600c60248201526000805160206141a0833981519152604482015290519081900360640190fd5b600160a060020a03831660009081526002602052604081206001015490805b8281101561105357600160a060020a0386166000908152600460205260409020816005811061103a57fe5b600302016001015482019150808060010191505061100f565b50949350505050565b60005460a860020a900460ff1615156110c1576040805160e560020a62461bcd02815260206004820152602b60248201526000805160206141e08339815191526044820152600080516020614260833981519152606482015290519081900360840190fd5b836002600160a060020a03821660009081526002602052604090205460ff1660038111156110eb57fe5b148061111d57506001600160a060020a03821660009081526002602052604090205460ff16600381111561111b57fe5b145b1515611175576040805160e560020a62461bcd02815260206004820152602860248201526000805160206142208339815191526044820152600080516020614200833981519152606482015290519081900360840190fd5b600160a060020a0385166000908152600460205260409020846005811061119857fe5b60030201600201548360008211806111b257508060018303105b1515611208576040805160e560020a62461bcd02815260206004820152601760248201527f50726f6475637420646f6573206e6f742065786973742e000000000000000000604482015290519081900360640190fd5b611210613422565b600160a060020a0387166000908152600560209081526040808320898452909152812086600a811061123e57fe5b600402019050848160020154101515156112a2576040805160e560020a62461bcd02815260206004820152601e60248201527f50726f64756374207175616e74697479206973206e6f7420656e6f7567680000604482015290519081900360640190fd5b6001810154850234811115611301576040805160e560020a62461bcd02815260206004820152600f60248201527f4e6f7420656e6f75676820706169640000000000000000000000000000000000604482015290519081900360640190fd5b61130d8989898961365b565b600160a060020a03891660009081526004602052604090208190896005811061133257fe5b60030201600101805491909101905534819003600081111561137d57604051339082156108fc029083906000818181858888f1935050505015801561137b573d6000803e3d6000fd5b505b60408051600160a060020a038c168152602081018b90528082018a90526060810189905290517f030281f3ca2147e2d4121d7a265f814b85166ca79a12d282460bf5f68848c0b09181900360800190a16113d56134f2565b50505050505050505050565b600054600160a060020a03163314611431576040805160e560020a62461bcd02815260206004820152601c6024820152600080516020614240833981519152604482015290519081900360640190fd5b4201600155565b60005460a860020a900460ff16151561149d576040805160e560020a62461bcd02815260206004820152602b60248201526000805160206141e08339815191526044820152600080516020614260833981519152606482015290519081900360840190fd5b60035481906000106114e7576040805160e560020a62461bcd02815260206004820152601160248201526000805160206141c0833981519152604482015290519081900360640190fd5b600160a060020a0381166000818152600260208190526040909120015460038054909190811061151357fe5b600091825260209091200154600160a060020a03161461156b576040805160e560020a62461bcd02815260206004820152600c60248201526000805160206141a0833981519152604482015290519081900360640190fd5b611573613422565b600160a060020a0382166000908152600260208190526040822001546003805491929160001981019081106115a457fe5b60009182526020909120015460038054600160a060020a0390921692508291849081106115cd57fe5b6000918252602080832091909101805473ffffffffffffffffffffffffffffffffffffffff1916600160a060020a03948516179055918316815260029182905260409020018290556003805480151561162257fe5b600082815260208082206000199084018101805473ffffffffffffffffffffffffffffffffffffffff19169055909201909255600160a060020a03861680835260028252604092839020805460ff191690558251858152925190927f9a67af531bfbfd34f63109e83cfab08e30f92a1827d5c3f50e8fa815469ff9f292908290030190a26116ae6134f2565b50505050565b60005460a860020a900460ff161515611719576040805160e560020a62461bcd02815260206004820152602b60248201526000805160206141e08339815191526044820152600080516020614260833981519152606482015290519081900360840190fd5b60023360009081526002602052604090205460ff16600381111561173957fe5b1461178e576040805160e560020a62461bcd02815260206004820152601360248201527f43616c6c6572206973206e6f742061646d696e00000000000000000000000000604482015290519081900360640190fd5b60035481906000106117d8576040805160e560020a62461bcd02815260206004820152601160248201526000805160206141c0833981519152604482015290519081900360640190fd5b600160a060020a0381166000818152600260208190526040909120015460038054909190811061180457fe5b600091825260209091200154600160a060020a03161461185c576040805160e560020a62461bcd02815260206004820152600c60248201526000805160206141a0833981519152604482015290519081900360640190fd5b816002600160a060020a03821660009081526002602052604090205460ff16600381111561188657fe5b14156118dc576040805160e560020a62461bcd02815260206004820152601860248201527f4164647265737320697320616c72656164792061646d696e0000000000000000604482015290519081900360640190fd5b6118e4613422565b600160a060020a038316600081815260026020818152604092839020805460ff1916909217909155815192835290517fd3bb62db0283786f57799e3517002af0b64c61687ef480bac34d05c746ef6dce9281900390910190a16119456134f2565b505050565b6060808080856002600160a060020a03821660009081526002602052604090205460ff16600381111561197957fe5b14806119ab57506001600160a060020a03821660009081526002602052604090205460ff1660038111156119a957fe5b145b1515611a03576040805160e560020a62461bcd02815260206004820152602860248201526000805160206142208339815191526044820152600080516020614200833981519152606482015290519081900360840190fd5b600160a060020a038716600090815260026020526040812060010154908790821180611a3157508060018303105b1515611a75576040805160e560020a62461bcd02815260206004820152601a6024820152600080516020614180833981519152604482015290519081900360640190fd5b600160a060020a03891660009081526004602052604081208960058110611a9857fe5b6003020160020154905080604051908082528060200260200182016040528015611acc578160200160208202803883390190505b50965080604051908082528060200260200182016040528015611af9578160200160208202803883390190505b50955080604051908082528060200260200182016040528015611b26578160200160208202803883390190505b50945060005b81811015611bc857600160a060020a038b1660009081526005602090815260408083208d8452909152812082600a8110611b6257fe5b60040201905080600101548983815181101515611b7b57fe5b6020908102909101015260028101548851899084908110611b9857fe5b6020908102909101015260038101548751889084908110611bb557fe5b6020908102909101015250600101611b2c565b50611bd38a8a61378d565b97505050505092959194509250565b60005460a860020a900460ff161515611c47576040805160e560020a62461bcd02815260206004820152602b60248201526000805160206141e08339815191526044820152600080516020614260833981519152606482015290519081900360840190fd5b3360008181526002602081905260409091205460ff166003811115611c6857fe5b1480611c9a57506001600160a060020a03821660009081526002602052604090205460ff166003811115611c9857fe5b145b1515611cf2576040805160e560020a62461bcd02815260206004820152602860248201526000805160206142208339815191526044820152600080516020614200833981519152606482015290519081900360840190fd5b611cfa613422565b60013360009081526002602052604090205460ff166003811115611d1a57fe5b1415611d2f57611d2a3383613911565b611d39565b611d398383613911565b60408051600160a060020a03851681526020810184905281517fd2c6da6bb71b22fd84a2f1cf24ee4f228222b97c9d91ebe409b863cf925384ac929181900390910190a16119456134f2565b60005460a860020a900460ff161515611dea576040805160e560020a62461bcd02815260206004820152602b60248201526000805160206141e08339815191526044820152600080516020614260833981519152606482015290519081900360840190fd5b3360008181526002602081905260409091205460ff166003811115611e0b57fe5b1480611e3d57506001600160a060020a03821660009081526002602052604090205460ff166003811115611e3b57fe5b145b1515611e95576040805160e560020a62461bcd02815260206004820152602860248201526000805160206142208339815191526044820152600080516020614200833981519152606482015290519081900360840190fd5b33600090815260026020526040812060010154908690821180611eba57508060018303105b1515611efe576040805160e560020a62461bcd02815260206004820152601a6024820152600080516020614180833981519152604482015290519081900360640190fd5b3360009081526004602052604090208760058110611f1857fe5b6003020160020154600a81101515611fa0576040805160e560020a62461bcd02815260206004820152602960248201527f4d61782070726f6475637420636f756e74207265616368656420666f7220636f60448201527f6c6c656374696f6e2e0000000000000000000000000000000000000000000000606482015290519081900360840190fd5b86611faa81613b1e565b151561204c576040805160e560020a62461bcd02815260206004820152604e60248201527f496e76616c696420737472696e672e2056616c6964206368617261637465732060448201527f612d7a2c20412d5a2c20302d392c20646f7420616e642073706163652e204d6160648201527f78206c656e677468206973203235000000000000000000000000000000000000608482015290519081900360a40190fd5b8560008111801561205e575060c88111155b15156120b4576040805160e560020a62461bcd02815260206004820152601b60248201527f50726f64756374207175616e7469747920697320696e76616c69640000000000604482015290519081900360640190fd5b876000811161210d576040805160e560020a62461bcd02815260206004820152600d60248201527f496e76616c696420707269636500000000000000000000000000000000000000604482015290519081900360640190fd5b612115613422565b3360009081526004602052604081208c6005811061212f57fe5b600302016002015490506080604051908101604052808c81526020018b81526020018a815260200160008019168152506005600033600160a060020a0316600160a060020a0316815260200190815260200160002060008e815260200190815260200160002082600a811015156121a257fe5b6004020160008201518160000190805190602001906121c2929190614096565b50602082810151600183015560408084015160028401556060909301516003909201919091553360009081526004909152208c600581106121ff57fe5b60030201600201600081548092919060010191905055507ffc54aa6b2c88fe3496d174877855cd39f03b3bb53b8c07b038f6df34c1929c398b8b8b6040518080602001848152602001838152602001828103825285818151815260200191508051906020019080838360005b8381101561228357818101518382015260200161226b565b50505050905090810190601f1680156122b05780820380516001836020036101000a031916815260200191505b5094505050505060405180910390a16122c76134f2565b505050505050505050505050565b60005460a860020a900460ff16151561233a576040805160e560020a62461bcd02815260206004820152602b60248201526000805160206141e08339815191526044820152600080516020614260833981519152606482015290519081900360840190fd5b60023360009081526002602052604090205460ff16600381111561235a57fe5b146123af576040805160e560020a62461bcd02815260206004820152601360248201527f43616c6c6572206973206e6f742061646d696e00000000000000000000000000604482015290519081900360640190fd5b60035481906000106123f9576040805160e560020a62461bcd02815260206004820152601160248201526000805160206141c0833981519152604482015290519081900360640190fd5b600160a060020a0381166000818152600260208190526040909120015460038054909190811061242557fe5b600091825260209091200154600160a060020a03161461247d576040805160e560020a62461bcd02815260206004820152600c60248201526000805160206141a0833981519152604482015290519081900360640190fd5b816001600160a060020a03821660009081526002602052604090205460ff1660038111156124a757fe5b14156124fd576040805160e560020a62461bcd02815260206004820152601e60248201527f4164647265737320697320616c72656164792073746f7265206f776e65720000604482015290519081900360640190fd5b612505613422565b600160a060020a038316600081815260026020908152604091829020805460ff19166001179055815192835290517f4aa15d7bfc6c8346c6246999e49742eb70ebdbab3d9e1909c0a96ef5e03ef6409281900390910190a16119456134f2565b60005460a860020a900460ff1615156125ca576040805160e560020a62461bcd02815260206004820152602b60248201526000805160206141e08339815191526044820152600080516020614260833981519152606482015290519081900360840190fd5b3360008181526002602052604090205460019060ff1660038111156125eb57fe5b1415612641576040805160e560020a62461bcd02815260206004820152601e60248201527f4164647265737320697320616c72656164792073746f7265206f776e65720000604482015290519081900360640190fd5b612649613422565b60408051606081018252600380825260006020808401829052825484860152338252600290529290922081518154929391929091839160ff191690600190849081111561269257fe5b02179055506020828101516001808401919091556040938401516002909301929092556003805492830181556000527fc2575a0e9e593c00f959f8c92f12db2869c3395a3b0502d05e2516446f71f85b909101805473ffffffffffffffffffffffffffffffffffffffff191633908117909155825190815291517fa85e843f21522c811b0b84257b449a1aaccdaa85f20fa02f799bf3f226811a269281900390910190a161273e6134f2565b50565b60005460a860020a900460ff1615156127a6576040805160e560020a62461bcd02815260206004820152602b60248201526000805160206141e08339815191526044820152600080516020614260833981519152606482015290519081900360840190fd5b3360008181526002602081905260409091205460ff1660038111156127c757fe5b14806127f957506001600160a060020a03821660009081526002602052604090205460ff1660038111156127f757fe5b145b1515612851576040805160e560020a62461bcd02815260206004820152602860248201526000805160206142208339815191526044820152600080516020614200833981519152606482015290519081900360840190fd5b612859613422565b60013360009081526002602052604090205460ff16600381111561287957fe5b141561288f5761288a338484613d51565b61289a565b61289a848484613d51565b60408051600160a060020a03861681526020810185905280820184905290517ffeadd144a3b5a69775bcc9e1ae1b8fd25e93a4f475b5ced68888c8bd698cbe7c9181900360600190a16116ae6134f2565b600054600160a060020a0316331461293b576040805160e560020a62461bcd02815260206004820152601c6024820152600080516020614240833981519152604482015290519081900360640190fd5b60005460a860020a900460ff16156129c3576040805160e560020a62461bcd02815260206004820152602a60248201527f436f6e747261637420697320616374697665642e2046756e6374696f6e20636160448201527f6c6c2064656e6965642e00000000000000000000000000000000000000000000606482015290519081900360840190fd5b6129cb613422565b6003546000805b82811015612a1257612a066003828154811015156129ec57fe5b600091825260209091200154600160a060020a0316610f20565b909101906001016129d2565b5060005b82811015612aa9576000600382815481101515612a2f57fe5b6000918252602080832090910154600160a060020a031680835260029091526040822060010154909250905b81811015612a9e57600160a060020a03831660009081526004602052604081208260058110612a8657fe5b60030201600101819055508080600101915050612a5b565b505050600101612a16565b5060008054600160a060020a031690821115612af757604051600160a060020a0382169083156108fc029084906000818181858888f19350505050158015612af5573d6000803e3d6000fd5b505b6119456134f2565b60005460a860020a900460ff161515612b64576040805160e560020a62461bcd02815260206004820152602b60248201526000805160206141e08339815191526044820152600080516020614260833981519152606482015290519081900360840190fd5b3360008181526002602081905260409091205460ff166003811115612b8557fe5b1480612bb757506001600160a060020a03821660009081526002602052604090205460ff166003811115612bb557fe5b145b1515612c0f576040805160e560020a62461bcd02815260206004820152602860248201526000805160206142208339815191526044820152600080516020614200833981519152606482015290519081900360840190fd5b33600090815260026020526040812060010154908590821180612c3457508060018303105b1515612c78576040805160e560020a62461bcd02815260206004820152601a6024820152600080516020614180833981519152604482015290519081900360640190fd5b612c80613422565b3360009081526005602090815260408083208984529091529020849086600a8110612ca757fe5b6004020160030155604080513381526020810188905280820187905290517f58bf226982e859283cd16bc6018b65ccae0ebaf607a7d28e733f81976bd66ae4916060908290030190a1612cf86134f2565b505050505050565b60005460a860020a900460ff161515612d65576040805160e560020a62461bcd02815260206004820152602b60248201526000805160206141e08339815191526044820152600080516020614260833981519152606482015290519081900360840190fd5b600154421015612de5576040805160e560020a62461bcd02815260206004820152602560248201527f5769746864726177616c73206172652073757370656e6465642074656d706f7260448201527f6172696c79000000000000000000000000000000000000000000000000000000606482015290519081900360840190fd5b3360008181526002602081905260409091205460ff166003811115612e0657fe5b1480612e3857506001600160a060020a03821660009081526002602052604090205460ff166003811115612e3657fe5b145b1515612e90576040805160e560020a62461bcd02815260206004820152602860248201526000805160206142208339815191526044820152600080516020614200833981519152606482015290519081900360840190fd5b33600090815260026020526040812060010154908490821180612eb557508060018303105b1515612ef9576040805160e560020a62461bcd02815260206004820152601a6024820152600080516020614180833981519152604482015290519081900360640190fd5b338585600081118015612f375750600160a060020a038316600090815260046020526040902081908360058110612f2c57fe5b600302016001015410155b1515612f8d576040805160e560020a62461bcd02815260206004820152601760248201527f496e76616c696420776974686472617720616d6f756e74000000000000000000604482015290519081900360640190fd5b612f95613422565b33600090815260046020526040902087908960058110612fb157fe5b6003020160010154036004600033600160a060020a0316600160a060020a0316815260200190815260200160002089600581101515612fec57fe5b600302016001015560405133906108fc8915029089906000818181858888f19350505050158015613021573d6000803e3d6000fd5b5060408051338152602081018a905280820189905290517fda9a10d7b992511ddadbfc7ff712c1424ce2058bbcdac8c9876d6f8de590d43f9181900360600190a161306a6134f2565b5050505050505050565b600160a060020a03811660009081526002602052604090205460ff165b919050565b60005460a860020a900460ff1615156130fb576040805160e560020a62461bcd02815260206004820152602b60248201526000805160206141e08339815191526044820152600080516020614260833981519152606482015290519081900360840190fd5b3360008181526002602081905260409091205460ff16600381111561311c57fe5b148061314e57506001600160a060020a03821660009081526002602052604090205460ff16600381111561314c57fe5b145b15156131a6576040805160e560020a62461bcd02815260206004820152602860248201526000805160206142208339815191526044820152600080516020614200833981519152606482015290519081900360840190fd5b816131b081613b1e565b1515613252576040805160e560020a62461bcd02815260206004820152604e60248201527f496e76616c696420737472696e672e2056616c6964206368617261637465732060448201527f612d7a2c20412d5a2c20302d392c20646f7420616e642073706163652e204d6160648201527f78206c656e677468206973203235000000000000000000000000000000000000608482015290519081900360a40190fd5b33600090815260026020526040902060010154600581106132bd576040805160e560020a62461bcd02815260206004820152601d60248201527f4d61782073746f726566726f6e7420636f756e7420726561636865642e000000604482015290519081900360640190fd5b6132c5613422565b3360008181526002602090815260408083206001015481516060810183528981528084018590528083018590529484526004909252909120909190826005811061330b57fe5b60030201600082015181600001908051906020019061332b929190614096565b506020828101516001808401919091556040938401516002938401553360008181529383528484208201805490920190915583518181529384018390526060840183905260808483018181528a519186019190915289517feec6f2e508c00a9fe3904d869037ba18d024b6298685787e7669db2411a7fa3b9592948b94909384939092909160a084019190870190808383885b838110156133d65781810151838201526020016133be565b50505050905090810190601f1680156134035780820380516001836020036101000a031916815260200191505b509550505050505060405180910390a161341b6134f2565b5050505050565b60005474010000000000000000000000000000000000000000900460ff16156134bb576040805160e560020a62461bcd02815260206004820152602f60248201527f45787465726e616c2063616c6c206973206f6e676f696e672e2046756e63746960448201527f6f6e2063616c6c2064656e6965642e0000000000000000000000000000000000606482015290519081900360840190fd5b6000805474ff0000000000000000000000000000000000000000191674010000000000000000000000000000000000000000179055565b6000805474ff000000000000000000000000000000000000000019169055565b606060008360400290506060816040519080825280601f01601f191660200182016040528015613549576020820181803883390190505b506040805160208082528183019092529192506060919060208201818038833901905050905060001986015b8681101561365057600160a060020a038616600090815260046020526040902081600581106135a057fe5b60030201805460408051602060026001851615610100026000190190941693909304601f810184900484028201840190925281815292918301828280156136285780601f106135fd57610100808354040283529160200191613628565b820191906000526020600020905b81548152906001019060200180831161360b57829003601f168201915b5050505050915061363a84838561403a565b61364382614079565b9093039260001901613575565b509095945050505050565b600160a060020a0384166000908152600460205260409020836005811061367e57fe5b600302016002015482600082118061369857508060018303105b15156136ee576040805160e560020a62461bcd02815260206004820152601760248201527f50726f6475637420646f6573206e6f742065786973742e000000000000000000604482015290519081900360640190fd5b600160a060020a0386166000908152600560209081526040808320888452909152812085600a811061371c57fe5b6004020190506000816002015490508481036000141561374657613741888888613d51565b61306a565b600160a060020a03881660009081526005602090815260408083208a845290915290208582039087600a811061377857fe5b60040201600201819055505050505050505050565b600160a060020a03821660009081526004602052604081206060919083600581106137b457fe5b6003020160020154905060008160400290506060816040519080825280601f01601f1916602001820160405280156137f3576020820181803883390190505b506040805160208082528183019092529192506060919060208201818038833901905050905060001984015b8481101561390557600160a060020a03881660009081526005602090815260408083208a8452909152902081600a811061385557fe5b60040201805460408051602060026001851615610100026000190190941693909304601f810184900484028201840190925281815292918301828280156138dd5780601f106138b2576101008083540402835291602001916138dd565b820191906000526020600020905b8154815290600101906020018083116138c057829003601f168201915b505050505091506138ef84838561403a565b6138f882614079565b909303926000190161381f565b50909695505050505050565b600160a060020a03821660009081526002602052604081206001015490829082118061393f57508060018303105b1515613983576040805160e560020a62461bcd02815260206004820152601a6024820152600080516020614180833981519152604482015290519081900360640190fd5b600160a060020a038416600090815260026020526040902060010154600019016139ab614114565b600160a060020a038616600090815260046020526040902082600581106139ce57fe5b6040805160039290920292909201805460806020601f6002600019610100600187161502019094169390930492830181900402840181019094526060830181815292939192849290918491840182828015613a6a5780601f10613a3f57610100808354040283529160200191613a6a565b820191906000526020600020905b815481529060010190602001808311613a4d57829003601f168201915b50505050508152602001600182015481526020016002820154815250509050806004600088600160a060020a0316600160a060020a0316815260200190815260200160002086600581101515613abc57fe5b600302016000820151816000019080519060200190613adc929190614096565b50602082810151600180840191909155604093840151600293840155600160a060020a0390991660009081529190522090950180546000190190555050505050565b60006060829050601981511115613b39576000915050613091565b60005b8151811015613d475760008282815181101515613b5557fe5b01602001517f0100000000000000000000000000000000000000000000000000000000000000908190040290507f3000000000000000000000000000000000000000000000000000000000000000600160f860020a0319821610801590613be657507f3900000000000000000000000000000000000000000000000000000000000000600160f860020a0319821611155b158015613c5457507f4100000000000000000000000000000000000000000000000000000000000000600160f860020a0319821610801590613c5257507f5a00000000000000000000000000000000000000000000000000000000000000600160f860020a0319821611155b155b8015613cc157507f6100000000000000000000000000000000000000000000000000000000000000600160f860020a0319821610801590613cbf57507f7a00000000000000000000000000000000000000000000000000000000000000600160f860020a0319821611155b155b8015613cf757507f2e00000000000000000000000000000000000000000000000000000000000000600160f860020a0319821614155b8015613d2d57507f2000000000000000000000000000000000000000000000000000000000000000600160f860020a0319821614155b15613d3e5760009350505050613091565b50600101613b3c565b5060019392505050565b600160a060020a038316600090815260026020526040812060010154908390821180613d7f57508060018303105b1515613dc3576040805160e560020a62461bcd02815260206004820152601a6024820152600080516020614180833981519152604482015290519081900360640190fd5b600160a060020a03851660009081526004602052604090208460058110613de657fe5b6003020160020154836000821180613e0057508060018303105b1515613e56576040805160e560020a62461bcd02815260206004820152601760248201527f50726f6475637420646f6573206e6f742065786973742e000000000000000000604482015290519081900360640190fd5b600160a060020a03871660009081526004602052604081206001908860058110613e7c57fe5b6003020160020154039050613e8f614136565b600160a060020a03891660009081526005602090815260408083208b8452909152902082600a8110613ebd57fe5b6040805160049290920292909201805460a06020601f6002600019610100600187161502019094169390930492830181900402840181019094526080830181815292939192849290918491840182828015613f595780601f10613f2e57610100808354040283529160200191613f59565b820191906000526020600020905b815481529060010190602001808311613f3c57829003601f168201915b50505050508152602001600182015481526020016002820154815260200160038201548152505090506000821115613ffd57600160a060020a03891660009081526005602090815260408083208b84529091529020819088600a8110613fbb57fe5b600402016000820151816000019080519060200190613fdb929190614096565b5060208201516001820155604082015160028201556060909101516003909101555b600160a060020a0389166000908152600460205260409020886005811061402057fe5b600302016002018054600019019055505050505050505050565b815160208082049160009190061115614051576001015b60010160005b8181101561341b576020810284015183860152601f1990940193600101614057565b8051602080820491061561408b576001015b600101602002919050565b828054600181600116156101000203166002900490600052602060002090601f016020900481019282601f106140d757805160ff1916838001178555614104565b82800160010185558215614104579182015b828111156141045782518255916020019190600101906140e9565b50614110929150614162565b5090565b6060604051908101604052806060815260200160008152602001600081525090565b608060405190810160405280606081526020016000815260200160008152602001600080191681525090565b61417c91905b808211156141105760008155600101614168565b9056fe53746f726566726f6e7420646f6573206e6f742065786973742e0000000000004e6f2073756368207573657200000000000000000000000000000000000000005468657265206973206e6f207573657273000000000000000000000000000000436f6e74726163742069732064656163746976652e2046756e6374696f6e20637265206f776e657200000000000000000000000000000000000000000000000041646472657373206973206e6569746865722061646d696e206e6f722073746f43616c6c6572206973206e6f7420636f6e7472616374206f776e657200000000616c6c2064656e6965642e000000000000000000000000000000000000000000a165627a7a72305820a9803b2105417d9e41b016142b542adf3b03533f6a0621cb76291455f28bf6260029",
  "source": "pragma solidity 0.5.0;\n\nimport \"./StringUtil.sol\";\nimport \"../contracts/MarketplaceSecurity.sol\";\n\n\n/** @title Marketplace. \n  * @author Juho Lehtonen\n*/\ncontract Marketplace is MarketplaceSecurity {\n\n    using StringUtil for string;\n\n    enum UserStatus { Shopper, StoreOwner, Admin, WaitingApproval }\n\n    struct User {\n        UserStatus status;\n        uint storefrontCount;\n        uint index;\n    }\n\n    mapping(address => User) private users;\n    address[] private userIndex;\n\n    struct Storefront {\n        string name;\n        uint balance;\n        uint productCount;\n    }\n\n    uint private constant MAX_STOREFRONT_COUNT = 5;\n    mapping(address => Storefront[MAX_STOREFRONT_COUNT]) private storefronts;\n    \n    struct Product {\n        string name;\n        uint price;\n        uint quantity;\n        bytes32 picIpfsHash;\n    }\n\n    uint private constant MAX_PRODUCT_COUNT = 10;\n    uint private constant MAX_PRODUCT_QUANTITY = 200;\n    mapping(address => mapping(uint => Product[MAX_PRODUCT_COUNT])) private products;\n\n    event LogAdminRightsGranted(address addr);\n    event LogStoreOwnerRightsGranted(address addr);\n    event LogStoreOwnerRightsRequested(address addr);\n    event LogDeleteUser(address indexed addr, uint index);\n    event LogNewStorefrontCreated(address owner, string name, uint balance, uint productCount);\n    event LogStorefrontRemoved(address storeOwner, uint storeIndex);\n    event LogNewProductAdded(string name, uint price, uint quantity);\n    event LogProductRemoved(address storeOwner, uint storeIndex, uint index);\n    event LogPurchaseProduct(address storeOwner, uint storeIndex, uint productIndex, uint quantity);\n    event LogWithdraw(address addr, uint storeIndex, uint amount);\n    event LogProductPictureIpfsHashAdded(address storeOwner, uint storeIndex, uint index);\n\n    modifier verifyCallerIsAdmin () {\n        require(users[msg.sender].status == UserStatus.Admin, \"Caller is not admin\"); \n        _;\n    }\n\n    modifier verifyAddressIsStoreOwnerOrAdmin(address addr) {\n        require(users[addr].status == UserStatus.Admin || users[addr].status == UserStatus.StoreOwner, \n        \"Address is neither admin nor store owner\"); \n        _;\n    }\n\n    modifier isNotShopper (address storeOwner) {\n        require(users[storeOwner].status != UserStatus.Shopper, \"Address is shopper\"); \n        _;\n    }\n\n    modifier isNotYetStoreOwner (address newStoreOwner) {\n        require(users[newStoreOwner].status != UserStatus.StoreOwner, \"Address is already store owner\"); \n        _;\n    }\n\n    modifier isNotAdmin (address newAdmin) {\n        require(users[newAdmin].status != UserStatus.Admin, \"Address is already admin\"); \n        _;\n    }\n\n    modifier isUser (address userAddress) {\n        require(userIndex.length > 0, \"There is no users\");\n        require(userIndex[users[userAddress].index] == userAddress, \"No such user\");\n        _;\n    }\n\n    modifier isNotUser (address userAddress) {\n        require(userIndex[users[userAddress].index] != userAddress, \"User already exisist\");\n        _;\n    }\n\n    modifier storeIndexExists (uint storefrontCount, uint index) {\n        require(storefrontCount > 0 || storefrontCount - 1 < index, \"Storefront does not exist.\");\n        _;\n    }\n\n    modifier storefrontMaxCapacityReached (uint storefrontCount) {\n        require(storefrontCount < MAX_STOREFRONT_COUNT, \"Max storefront count reached.\");\n        _;\n    }\n\n    modifier isValidWithdrawAmount (address storeOwner, uint storeIndex, uint amount) {\n        require(amount > 0 && storefronts[storeOwner][storeIndex].balance >= amount, \"Invalid withdraw amount\");\n        _;\n    }\n\n    modifier isValidProductPrice (uint price) {\n        require(price > 0, \"Invalid price\");\n        _;\n    }\n\n    modifier productIndexExists (uint productCount, uint index) {\n        require(productCount > 0 || productCount - 1 < index, \"Product does not exist.\");\n        _;\n    }\n\n    modifier productMaxCapacityReached (uint productCount) {\n        require(productCount < MAX_PRODUCT_COUNT, \"Max product count reached for collection.\");\n        _;\n    }\n\n    modifier isValidPurchaseQuantity(uint purchaseQuantity) {\n        require(\n            purchaseQuantity > 0 && purchaseQuantity <= MAX_PRODUCT_QUANTITY, \n            \"Product purchase quantity is invalid\");\n        _;\n    }\n\n    modifier isValidProductQuantity(uint quantity) {\n        require(quantity > 0 && quantity <= MAX_PRODUCT_QUANTITY, \"Product quantity is invalid\");\n        _;\n    }\n\n    /** @notice Create contract. \n      * @dev Contract creator is always admin.\n      */\n    constructor() \n    public \n    {\n        owner = msg.sender;\n        users[msg.sender] = User({status: UserStatus.Admin, storefrontCount: 0, index: userIndex.length});\n        userIndex.push(msg.sender);\n        emit LogAdminRightsGranted(msg.sender);\n    }\n\n    /** @notice Grant store owner rights for user. \n      * @dev Store owner rights can be granted only by admin. Only users that has \n      * requested store owner rights can be promoted. \n      * @param newStoreOwner User address that will be granted with store owner right.\n      */\n    function addStoreOwner(address newStoreOwner)\n    public\n    isContractActivated()\n    verifyCallerIsAdmin()\n    isUser(newStoreOwner)\n    isNotYetStoreOwner(newStoreOwner)\n    {\n        externalEnter();\n        users[newStoreOwner].status = UserStatus.StoreOwner;\n        emit LogStoreOwnerRightsGranted(newStoreOwner);\n        externalLeave();\n    }\n\n    /** @notice Grant store admin rights for user. \n      * @dev Admin rights can be granted only by admin. Only users that has \n      * requested store owner rights can be promoted. \n      * @param newAdmin User address that will be granted with admin right.\n      */\n    function addAdmin(address newAdmin)\n    public\n    isContractActivated()\n    verifyCallerIsAdmin()\n    isUser(newAdmin)\n    isNotAdmin(newAdmin)\n    {\n        externalEnter();\n        users[newAdmin].status = UserStatus.Admin;\n        emit LogAdminRightsGranted(newAdmin);\n        externalLeave();\n    }\n\n    /** @notice Request store owner rights for caller.\n      * @dev Request is needed before shop owner rights can be granted.\n      */\n    function requestStoreOwnerStatus()\n    public\n    isContractActivated()\n    isNotYetStoreOwner(msg.sender)\n    {\n        externalEnter();\n        users[msg.sender] = User({status: UserStatus.WaitingApproval, storefrontCount: 0, index: userIndex.length});\n        userIndex.push(msg.sender);\n        emit LogStoreOwnerRightsRequested(msg.sender);\n        externalLeave();\n    }\n\n    /** @notice Delete registered user. \n      * @dev Last item of the users map will be moved to index that will be removed. \n      * Index is also updated accordingly for the moved item. After that last user \n      * address is removed from the userIndexes.\n      */\n    function deleteUser(address userAddress) \n    public\n    isContractActivated()\n    isUser(userAddress)\n    {\n        externalEnter();\n        uint deleteRow = users[userAddress].index;\n        address updateKey = userIndex[userIndex.length-1];\n        userIndex[deleteRow] = updateKey;\n        users[updateKey].index = deleteRow; \n        userIndex.pop();\n        users[userAddress].status = UserStatus.Shopper;\n        emit LogDeleteUser(userAddress, deleteRow);\n        externalLeave();\n    }\n\n    /** @notice Get User status for the given address.\n      * @param userAddress User's address.\n      * @return userStatus Status of the registered user.\n      */\n    function getUserStatus(address userAddress) \n    public \n    view\n    returns (UserStatus userStatus) \n    {\n        return users[userAddress].status;\n    }\n\n    /** @notice Get all registered users and their statuses. \n      * @dev Returns two arrays. Users array index is corresponding to status array index.\n      * @return addrs Array of users' addresses\n      * @return statuses Array of users' statuses\n      */\n    function getUsers() \n    public \n    view\n    returns (address[] memory addrs, UserStatus[] memory statuses) \n    {\n        uint userCount = userIndex.length;\n        statuses = new UserStatus[](userCount);\n        addrs = new address[](userCount);\n        for (uint i = 0; i < userCount; i++) {\n            addrs[i] = userIndex[i];\n            statuses[i] = users[userIndex[i]].status;\n        }\n        return (addrs, statuses);\n    }\n\n    /** @notice Add new storefront. \n      * @dev Caller needs to be store owner or admin.\n      * @param name Name for new storefront.\n      */\n    function addStorefront(string memory name) \n    public \n    isContractActivated()\n    verifyAddressIsStoreOwnerOrAdmin(msg.sender)\n    isValidString(name)\n    storefrontMaxCapacityReached(users[msg.sender].storefrontCount)\n    {\n        externalEnter();\n        uint storefrontCount = users[msg.sender].storefrontCount;\n        storefronts[msg.sender][storefrontCount] = Storefront(\n            {name: name, balance: 0, productCount: 0});\n        users[msg.sender].storefrontCount++;\n        emit LogNewStorefrontCreated(msg.sender, name, 0, 0);\n        externalLeave();\n    }\n\n    /** @notice Remove existing storefront owned by store owner. \n      * @dev Caller needs to be store owner or admin. Store owner can remove only \n      * own stores and admin can remove any store.\n      * @param storeOwner Store owner's address that has storefront to be removed.\n      * @param storeIndex Storefront index that will be removed.\n      */\n    function removeStorefront(address storeOwner, uint storeIndex) \n    public\n    isContractActivated()\n    verifyAddressIsStoreOwnerOrAdmin(msg.sender)\n    {\n        externalEnter();\n        // store owner can remove own stores\n        if ( users[msg.sender].status == UserStatus.StoreOwner ) {\n            handleStorefrontRemoval(msg.sender, storeIndex); \n        }\n        // admin can remove every storefront\n        else {\n            handleStorefrontRemoval(storeOwner, storeIndex);\n        }\n        emit LogStorefrontRemoved(storeOwner, storeIndex);\n        externalLeave();\n    }\n\n    /** @notice Add product to specified storefront. \n      * @dev Caller needs to be store owner or admin.\n      * @param storeIndex Storefront index that will be removed.\n      * @param name Name of product.\n      * @param price Price of product.      \n      * @param quantity Quantity of product.      \n      */\n    function addProductToStoreFront(uint storeIndex, string memory name, uint price, uint quantity) \n    public\n    isContractActivated()\n    verifyAddressIsStoreOwnerOrAdmin(msg.sender)\n    storeIndexExists(users[msg.sender].storefrontCount, storeIndex)\n    productMaxCapacityReached(storefronts[msg.sender][storeIndex].productCount)\n    isValidString(name)\n    isValidProductQuantity(quantity)\n    isValidProductPrice(price)\n    {\n        externalEnter();\n        uint productCount = storefronts[msg.sender][storeIndex].productCount;\n        products[msg.sender][storeIndex][productCount] = Product({\n            name: name, price: price, quantity: quantity, picIpfsHash: \"\"\n        });\n        storefronts[msg.sender][storeIndex].productCount++;\n        emit LogNewProductAdded(name, price, quantity);\n        externalLeave();\n    }\n\n    /** @notice Remove product from specified storefront.\n      * @dev Caller needs to be store owner or admin. Store owner can remove \n      * only own products and admin can remove any product.\n      * @param storeOwner Store owner address.\n      * @param storeIndex Storefront index that contains product to be removed.\n      * @param productIndex Product index that will be removed.\n      */\n    function removeProductFromStorefront(address storeOwner, uint storeIndex, uint productIndex) \n    public\n    isContractActivated()\n    verifyAddressIsStoreOwnerOrAdmin(msg.sender)\n    {\n        externalEnter();\n        // store owner can remove own product\n        if ( users[msg.sender].status == UserStatus.StoreOwner ) {\n            deleteProduct(msg.sender, storeIndex, productIndex);\n        } \n        // admin can remove any product\n        else {\n            deleteProduct(storeOwner, storeIndex, productIndex);\n        }\n        emit LogProductRemoved(storeOwner, storeIndex, productIndex);\n        externalLeave();\n    }\n\n    /** @notice Get all products from specified storefront.\n      * @dev Returns three arrays: names (in bytes), prices and quantities. \n      * Array indexes is corresponding with each other.\n      * @param storeOwner Store owner address.\n      * @param storeIndex Storefront index that contains products to be returned.\n      * @return names Array of product names in bytes.\n      * @return prices Array of product prices.\n      * @return quantities Array of product quantities.\n      * @return ipfsHash Array of product IPFS hash in bytes.\n      */\n    function getAllProductsFromStorefront(address storeOwner, uint storeIndex) \n    public\n    view\n    verifyAddressIsStoreOwnerOrAdmin(storeOwner)\n    storeIndexExists(users[storeOwner].storefrontCount, storeIndex)\n    returns(bytes memory names, uint[] memory prices, uint[] memory quantities, bytes32[] memory ipfsHashes)\n    {\n        uint pCount = storefronts[storeOwner][storeIndex].productCount;\n        prices = new uint[](pCount);\n        quantities = new uint[](pCount);\n        ipfsHashes = new bytes32[](pCount);\n\n        for (uint i = 0; i < pCount; i++) {\n            Product storage product = products[storeOwner][storeIndex][i];\n            prices[i] = product.price;\n            quantities[i] = product.quantity;\n            ipfsHashes[i] = product.picIpfsHash;\n        }\n        names = getProductNamesInBytes(storeOwner, storeIndex);\n        return (names, prices, quantities, ipfsHashes);\n    }\n\n    /** @notice Get all storefronts. \n      * @dev Returns three arrays: names (in bytes), balances and \n      * product count. Array indexes is corresponding with each other.\n      * @param storeOwner Store owner address that owns storefronts.\n      * @return names Array of storefront names in bytes.\n      * @return balances Array of storefront balances.\n      * @return productCount Array of storefront product counts\n      */\n    function getStorefronts(address storeOwner)\n    public\n    view\n    isNotShopper(storeOwner)\n    returns(bytes memory names, uint[] memory balances, uint[] memory productCount)\n    {\n        uint storefrontCount = users[storeOwner].storefrontCount;\n        balances = new uint[](storefrontCount);\n        productCount = new uint[](storefrontCount);\n\n        for (uint i = 0; i < storefrontCount; i++) {\n            Storefront storage sf = storefronts[storeOwner][i];\n            balances[i] = sf.balance;\n            productCount[i] = sf.productCount;\n        }\n        return (getStorefrontNamesInBytes(storefrontCount, storeOwner), balances, productCount);\n    }\n\n    /** @notice Purchase product.\n      * @dev If sended value is bigger than \n      * @param storeOwner Store owner address.\n      * @param storeIndex Storefront index that contains product to be purchased.\n      * @param productIndex Product index to be purchased.\n      * @param quantity Purchase quantity.\n      */\n    function purchaseProduct(address storeOwner, uint storeIndex, uint productIndex, uint quantity) \n    public \n    payable\n    isContractActivated()\n    verifyAddressIsStoreOwnerOrAdmin(storeOwner)\n    productIndexExists(storefronts[storeOwner][storeIndex].productCount, productIndex) \n    {\n        externalEnter();\n        Product storage product = products[storeOwner][storeIndex][productIndex];\n        \n        require(product.quantity >= quantity, \"Product quantity is not enough\");\n\n        uint priceInTotal = product.price * quantity;\n\n        // check if paid enough\n        require(msg.value >= priceInTotal, \"Not enough paid\");\n\n        handleProductPurchase(storeOwner, storeIndex, productIndex, quantity);\n        storefronts[storeOwner][storeIndex].balance += priceInTotal;\n\n        // refund\n        uint refund = msg.value - priceInTotal;\n        if (refund > 0) {\n            msg.sender.transfer(refund);\n        }\n        emit LogPurchaseProduct(storeOwner, storeIndex, productIndex, quantity);\n        externalLeave();\n    }\n\n    /** @notice Withdraw funds that have been earned. \n      * @dev User can only withdraw funds from own storefront.\n      * @param storeIndex Storefront index where funds will be withdrawed.\n      * @param amount Amount of funds that will be withdrawed from the storefront.\n      */\n    function withdrawFunds(uint storeIndex, uint amount) \n    public \n    payable\n    isContractActivated()\n    isWithdrawalAllowed()\n    verifyAddressIsStoreOwnerOrAdmin(msg.sender)\n    storeIndexExists(users[msg.sender].storefrontCount, storeIndex)\n    isValidWithdrawAmount(msg.sender, storeIndex, amount)\n    {\n        externalEnter();\n        storefronts[msg.sender][storeIndex].balance = storefronts[msg.sender][storeIndex].balance - amount;\n        msg.sender.transfer(amount);\n        emit LogWithdraw(msg.sender, storeIndex, amount);\n        externalLeave();\n    }\n\n    /** @notice Withdraw all funds in case of emergency. \n      * @dev Contract should be deactivated before function call.\n      * This function can be called only contract owner.\n      */\n    function emergencyWithdraw() \n    public \n    payable\n    isOwner()\n    isContractDeactivated()\n    {\n        externalEnter();\n        // collect users' balances\n        uint userCount = userIndex.length;\n        uint contractBalance = 0;\n        for (uint i = 0; i < userCount; i++) {\n            contractBalance += getUserBalance(userIndex[i]);\n        }\n\n        // set empty balances\n        for (uint k = 0; k < userCount; k++) {\n            address userAddress = userIndex[k];\n            uint storefrontCount = users[userAddress].storefrontCount;\n            for (uint l = 0; l < storefrontCount; l++) {\n                storefronts[userAddress][l].balance = 0;\n            }\n        }\n\n        // withdraw everything\n        address payable ownerPayable = address(uint160(owner));\n        if (contractBalance > 0) {\n            ownerPayable.transfer(contractBalance);\n        }\n        externalLeave();\n    }\n\n    /** @notice Get combined balance of storefronts for user.\n      * @param userAddress User's address that owns storefront.\n      * @return combinedBalance Combined balance of storefronts for the given user.\n      */\n    function getUserBalance(address userAddress) \n    public\n    view\n    isUser(userAddress)\n    returns (uint combinedBalance)\n    {\n        uint storefrontCount = users[userAddress].storefrontCount;\n        uint totalBalance = 0;\n        for (uint i = 0; i < storefrontCount; i++) {\n            totalBalance += storefronts[userAddress][i].balance;\n        }\n        return totalBalance;\n    }\n\n    /** @notice Update product price. \n      * @dev Only store owner can update own products' prices.\n      * @param storeIndex Storefront index that contains product to be updated.\n      * @param productIndex Product index that will be updated.\n      * @param newPrice New price for the product.\n      */\n    function updatePrice(uint storeIndex, uint productIndex, uint newPrice) \n    public\n    isContractActivated()\n    verifyAddressIsStoreOwnerOrAdmin(msg.sender)\n    storeIndexExists(users[msg.sender].storefrontCount, storeIndex)\n    isValidProductPrice(newPrice)\n    {\n        externalEnter();\n        products[msg.sender][storeIndex][productIndex].price = newPrice;\n        externalLeave();\n    }\n\n    /** @notice Update IPFS hash code for the product picture.\n      * @dev Picture hash is initialized as empty when product is created. Hash is in hex format\n      * without \"Qm\" prefix so it fits to bytes32. \n      * Picture hash needs to be added afterwards.\n      * @param storeIndex Storefront index that contains product to be updated.\n      * @param productIndex Product index that will be updated.\n      * @param picIpfsHash Product picture hash in IPFS\n      */\n    function updateIpfsHashForProductPic(uint storeIndex, uint productIndex, bytes32 picIpfsHash) \n    public\n    isContractActivated()\n    verifyAddressIsStoreOwnerOrAdmin(msg.sender)\n    storeIndexExists(users[msg.sender].storefrontCount, storeIndex)\n    {\n        externalEnter();\n        products[msg.sender][storeIndex][productIndex].picIpfsHash = picIpfsHash;\n        emit LogProductPictureIpfsHashAdded(msg.sender, storeIndex, productIndex);\n        externalLeave();\n    }\n\n    /** @notice Get storefront names in bytes. \n      * @dev Iterate through strorefronts and transfer names into bytes.\n      * @return serialized Names array in bytes.\n      */\n    function getStorefrontNamesInBytes(uint storefrontCount, address storeOwner) \n    private \n    view \n    returns(bytes memory serialized)\n    {\n        uint offset = 64*storefrontCount;\n        \n        bytes memory buffer = new bytes(offset);\n        string memory str = new string(32);\n\n        for (uint i = storefrontCount - 1; i < storefrontCount; i--) {\n            str = storefronts[storeOwner][i].name;\n            \n            StringUtil.stringToBytes(offset, bytes(str), buffer);\n            offset -= str.getSize();\n        }\n        \n        return (buffer);\n    }\n\n    /** @notice Delete product from the collection.\n      * @param productIndex Product index that will be removed.\n      */\n    function deleteProduct(address storeOwner, uint storeIndex, uint productIndex) \n    private\n    storeIndexExists(users[storeOwner].storefrontCount, storeIndex)\n    productIndexExists(storefronts[storeOwner][storeIndex].productCount, productIndex) \n    {\n        uint lastIndexBeforeRemoval = storefronts[storeOwner][storeIndex].productCount - 1;\n        Product memory lastProduct = products[storeOwner][storeIndex][lastIndexBeforeRemoval];\n        \n        if (lastIndexBeforeRemoval > 0) {\n            products[storeOwner][storeIndex][productIndex] = lastProduct;\n        }\n        storefronts[storeOwner][storeIndex].productCount--;\n    }\n\n    /** @notice Handle product purchase book keeping.\n      * @param index Product index to be purchased.\n      * @param purchaseQuantity Purchase quantity.\n      */\n    function handleProductPurchase(address storeOwner, uint storeIndex, uint index, uint purchaseQuantity)\n    private\n    productIndexExists(storefronts[storeOwner][storeIndex].productCount, index)\n    {\n        Product storage product = products[storeOwner][storeIndex][index];\n        uint existingQuantity = product.quantity;\n        if (existingQuantity - purchaseQuantity == 0) {\n            deleteProduct(storeOwner, storeIndex, index);\n        } else {\n            products[storeOwner][storeIndex][index].quantity = existingQuantity - purchaseQuantity;\n        }\n    }\n\n    /** @notice Get product names in bytes. \n      * @dev Iterate through products and transfer names into bytes.\n      * @return serialized Names array in bytes.\n      */\n    function getProductNamesInBytes(address storeOwner, uint storeIndex) \n    private \n    view \n    returns(bytes memory serialized)\n    {\n        uint pCount = storefronts[storeOwner][storeIndex].productCount;\n        uint offset = 64*pCount;\n        \n        bytes memory buffer = new bytes(offset);\n        string memory str = new string(32);\n\n        for (uint i = pCount - 1; i < pCount; i--) {\n            str = products[storeOwner][storeIndex][i].name;\n            \n            StringUtil.stringToBytes(offset, bytes(str), buffer);\n            offset -= str.getSize();\n        }\n        \n        return (buffer);\n    }\n\n    /** @notice Remove existing storefront.\n      * @param storeIndex Storefront index that will be removed.\n      */\n    function handleStorefrontRemoval(address storeOwner, uint storeIndex) \n    private\n    storeIndexExists(users[storeOwner].storefrontCount, storeIndex)\n    {\n        uint lastIndexBeforeRemoval = users[storeOwner].storefrontCount - 1;\n        Storefront memory lastStore = storefronts[storeOwner][lastIndexBeforeRemoval];\n        storefronts[storeOwner][storeIndex] = lastStore;\n        users[storeOwner].storefrontCount--;\n    }\n}",
  "sourcePath": "/Users/lehtonen/Documents/solidity/marketplace/contracts/Marketplace.sol",
  "compiler": {
    "name": "solc",
    "version": "0.5.0+commit.1d4f565a.Emscripten.clang"
  },
  "schemaVersion": "3.0.1",
  "updatedAt": "2019-01-23T19:37:44.801Z",
  "devdoc": {
    "author": "Juho Lehtonen",
    "methods": {
      "addAdmin(address)": {
        "details": "Admin rights can be granted only by admin. Only users that has  requested store owner rights can be promoted. ",
        "params": {
          "newAdmin": "User address that will be granted with admin right."
        }
      },
      "addProductToStoreFront(uint256,string,uint256,uint256)": {
        "details": "Caller needs to be store owner or admin.",
        "params": {
          "name": "Name of product.",
          "price": "Price of product.      ",
          "quantity": "Quantity of product.      ",
          "storeIndex": "Storefront index that will be removed."
        }
      },
      "addStoreOwner(address)": {
        "details": "Store owner rights can be granted only by admin. Only users that has  requested store owner rights can be promoted. ",
        "params": {
          "newStoreOwner": "User address that will be granted with store owner right."
        }
      },
      "addStorefront(string)": {
        "details": "Caller needs to be store owner or admin.",
        "params": {
          "name": "Name for new storefront."
        }
      },
      "constructor": {
        "details": "Contract creator is always admin."
      },
      "deleteUser(address)": {
        "details": "Last item of the users map will be moved to index that will be removed.  Index is also updated accordingly for the moved item. After that last user  address is removed from the userIndexes."
      },
      "disown()": {
        "details": "Once ownership is erased, contract can't be destroyed nor deactivated by contract creator."
      },
      "emergencyWithdraw()": {
        "details": "Contract should be deactivated before function call. This function can be called only contract owner."
      },
      "getAllProductsFromStorefront(address,uint256)": {
        "details": "Returns three arrays: names (in bytes), prices and quantities.  Array indexes is corresponding with each other.",
        "params": {
          "storeIndex": "Storefront index that contains products to be returned.",
          "storeOwner": "Store owner address."
        },
        "return": "names Array of product names in bytes.prices Array of product prices.quantities Array of product quantities.ipfsHash Array of product IPFS hash in bytes."
      },
      "getStorefronts(address)": {
        "details": "Returns three arrays: names (in bytes), balances and  product count. Array indexes is corresponding with each other.",
        "params": {
          "storeOwner": "Store owner address that owns storefronts."
        },
        "return": "names Array of storefront names in bytes.balances Array of storefront balances.productCount Array of storefront product counts"
      },
      "getUserBalance(address)": {
        "params": {
          "userAddress": "User's address that owns storefront."
        },
        "return": "combinedBalance Combined balance of storefronts for the given user."
      },
      "getUserStatus(address)": {
        "params": {
          "userAddress": "User's address."
        },
        "return": "userStatus Status of the registered user."
      },
      "getUsers()": {
        "details": "Returns two arrays. Users array index is corresponding to status array index.",
        "return": "addrs Array of users' addressesstatuses Array of users' statuses"
      },
      "kill()": {
        "details": "Only contract owner can destroy contract. Contract owner will  receive all of the funds that the contract currently holds."
      },
      "purchaseProduct(address,uint256,uint256,uint256)": {
        "details": "If sended value is bigger than ",
        "params": {
          "productIndex": "Product index to be purchased.",
          "quantity": "Purchase quantity.",
          "storeIndex": "Storefront index that contains product to be purchased.",
          "storeOwner": "Store owner address."
        }
      },
      "removeProductFromStorefront(address,uint256,uint256)": {
        "details": "Caller needs to be store owner or admin. Store owner can remove  only own products and admin can remove any product.",
        "params": {
          "productIndex": "Product index that will be removed.",
          "storeIndex": "Storefront index that contains product to be removed.",
          "storeOwner": "Store owner address."
        }
      },
      "removeStorefront(address,uint256)": {
        "details": "Caller needs to be store owner or admin. Store owner can remove only  own stores and admin can remove any store.",
        "params": {
          "storeIndex": "Storefront index that will be removed.",
          "storeOwner": "Store owner's address that has storefront to be removed."
        }
      },
      "requestStoreOwnerStatus()": {
        "details": "Request is needed before shop owner rights can be granted."
      },
      "suspendWithdrawals(uint256)": {
        "details": "Only contract owner can destroy contract. Contract owner will  receive all of the funds that the contract currently holds."
      },
      "toggleContractActive()": {
        "details": "If contract is active when function is called, contract will be deactivated. If contract is deactivated  when function is called, contract will be activated. A circuit breaker can be triggered manually by contract  owner. Function is used when a bug is discovered."
      },
      "updateIpfsHashForProductPic(uint256,uint256,bytes32)": {
        "details": "Picture hash is initialized as empty when product is created. Hash is in hex format without \"Qm\" prefix so it fits to bytes32.  Picture hash needs to be added afterwards.",
        "params": {
          "picIpfsHash": "Product picture hash in IPFS",
          "productIndex": "Product index that will be updated.",
          "storeIndex": "Storefront index that contains product to be updated."
        }
      },
      "updatePrice(uint256,uint256,uint256)": {
        "details": "Only store owner can update own products' prices.",
        "params": {
          "newPrice": "New price for the product.",
          "productIndex": "Product index that will be updated.",
          "storeIndex": "Storefront index that contains product to be updated."
        }
      },
      "withdrawFunds(uint256,uint256)": {
        "details": "User can only withdraw funds from own storefront.",
        "params": {
          "amount": "Amount of funds that will be withdrawed from the storefront.",
          "storeIndex": "Storefront index where funds will be withdrawed."
        }
      }
    },
    "title": "Marketplace. "
  },
  "userdoc": {
    "methods": {
      "addAdmin(address)": {
        "notice": "Grant store admin rights for user. "
      },
      "addProductToStoreFront(uint256,string,uint256,uint256)": {
        "notice": "Add product to specified storefront. "
      },
      "addStoreOwner(address)": {
        "notice": "Grant store owner rights for user. "
      },
      "addStorefront(string)": {
        "notice": "Add new storefront. "
      },
      "constructor": "Create contract. ",
      "deleteUser(address)": {
        "notice": "Delete registered user. "
      },
      "disown()": {
        "notice": "Erase ownership information."
      },
      "emergencyWithdraw()": {
        "notice": "Withdraw all funds in case of emergency. "
      },
      "getAllProductsFromStorefront(address,uint256)": {
        "notice": "Get all products from specified storefront."
      },
      "getStorefronts(address)": {
        "notice": "Get all storefronts. "
      },
      "getUserBalance(address)": {
        "notice": "Get combined balance of storefronts for user."
      },
      "getUserStatus(address)": {
        "notice": "Get User status for the given address."
      },
      "getUsers()": {
        "notice": "Get all registered users and their statuses. "
      },
      "kill()": {
        "notice": "Destroy the contract and remove it from the blockchain. "
      },
      "purchaseProduct(address,uint256,uint256,uint256)": {
        "notice": "Purchase product."
      },
      "removeProductFromStorefront(address,uint256,uint256)": {
        "notice": "Remove product from specified storefront."
      },
      "removeStorefront(address,uint256)": {
        "notice": "Remove existing storefront owned by store owner. "
      },
      "requestStoreOwnerStatus()": {
        "notice": "Request store owner rights for caller."
      },
      "suspendWithdrawals(uint256)": {
        "notice": "Destroy the contract and remove it from the blockchain. "
      },
      "toggleContractActive()": {
        "notice": "Toggle contract's activity state. "
      },
      "updateIpfsHashForProductPic(uint256,uint256,bytes32)": {
        "notice": "Update IPFS hash code for the product picture."
      },
      "updatePrice(uint256,uint256,uint256)": {
        "notice": "Update product price. "
      },
      "withdrawFunds(uint256,uint256)": {
        "notice": "Withdraw funds that have been earned. "
      }
    }
  }
}